{
  "contractName": "Marketplace",
  "abi": [
    {
      "inputs": [],
      "stateMutability": "nonpayable",
      "type": "constructor"
    },
    {
      "anonymous": false,
      "inputs": [
        {
          "indexed": true,
          "internalType": "address",
          "name": "owner",
          "type": "address"
        },
        {
          "indexed": true,
          "internalType": "address",
          "name": "approved",
          "type": "address"
        },
        {
          "indexed": true,
          "internalType": "uint256",
          "name": "tokenId",
          "type": "uint256"
        }
      ],
      "name": "Approval",
      "type": "event"
    },
    {
      "anonymous": false,
      "inputs": [
        {
          "indexed": true,
          "internalType": "address",
          "name": "owner",
          "type": "address"
        },
        {
          "indexed": true,
          "internalType": "address",
          "name": "operator",
          "type": "address"
        },
        {
          "indexed": false,
          "internalType": "bool",
          "name": "approved",
          "type": "bool"
        }
      ],
      "name": "ApprovalForAll",
      "type": "event"
    },
    {
      "anonymous": false,
      "inputs": [
        {
          "indexed": true,
          "internalType": "uint256",
          "name": "tokenId",
          "type": "uint256"
        },
        {
          "indexed": false,
          "internalType": "address",
          "name": "seller",
          "type": "address"
        },
        {
          "indexed": false,
          "internalType": "address",
          "name": "owner",
          "type": "address"
        },
        {
          "indexed": false,
          "internalType": "uint256",
          "name": "price",
          "type": "uint256"
        },
        {
          "indexed": false,
          "internalType": "bool",
          "name": "sold",
          "type": "bool"
        }
      ],
      "name": "MarketItemCreated",
      "type": "event"
    },
    {
      "anonymous": false,
      "inputs": [
        {
          "indexed": true,
          "internalType": "address",
          "name": "from",
          "type": "address"
        },
        {
          "indexed": true,
          "internalType": "address",
          "name": "to",
          "type": "address"
        },
        {
          "indexed": true,
          "internalType": "uint256",
          "name": "tokenId",
          "type": "uint256"
        }
      ],
      "name": "Transfer",
      "type": "event"
    },
    {
      "inputs": [
        {
          "internalType": "address",
          "name": "to",
          "type": "address"
        },
        {
          "internalType": "uint256",
          "name": "tokenId",
          "type": "uint256"
        }
      ],
      "name": "approve",
      "outputs": [],
      "stateMutability": "nonpayable",
      "type": "function"
    },
    {
      "inputs": [
        {
          "internalType": "address",
          "name": "owner",
          "type": "address"
        }
      ],
      "name": "balanceOf",
      "outputs": [
        {
          "internalType": "uint256",
          "name": "",
          "type": "uint256"
        }
      ],
      "stateMutability": "view",
      "type": "function",
      "constant": true
    },
    {
      "inputs": [
        {
          "internalType": "uint256",
          "name": "tokenId",
          "type": "uint256"
        }
      ],
      "name": "getApproved",
      "outputs": [
        {
          "internalType": "address",
          "name": "",
          "type": "address"
        }
      ],
      "stateMutability": "view",
      "type": "function",
      "constant": true
    },
    {
      "inputs": [
        {
          "internalType": "address",
          "name": "owner",
          "type": "address"
        },
        {
          "internalType": "address",
          "name": "operator",
          "type": "address"
        }
      ],
      "name": "isApprovedForAll",
      "outputs": [
        {
          "internalType": "bool",
          "name": "",
          "type": "bool"
        }
      ],
      "stateMutability": "view",
      "type": "function",
      "constant": true
    },
    {
      "inputs": [],
      "name": "name",
      "outputs": [
        {
          "internalType": "string",
          "name": "",
          "type": "string"
        }
      ],
      "stateMutability": "view",
      "type": "function",
      "constant": true
    },
    {
      "inputs": [
        {
          "internalType": "uint256",
          "name": "tokenId",
          "type": "uint256"
        }
      ],
      "name": "ownerOf",
      "outputs": [
        {
          "internalType": "address",
          "name": "",
          "type": "address"
        }
      ],
      "stateMutability": "view",
      "type": "function",
      "constant": true
    },
    {
      "inputs": [
        {
          "internalType": "address",
          "name": "from",
          "type": "address"
        },
        {
          "internalType": "address",
          "name": "to",
          "type": "address"
        },
        {
          "internalType": "uint256",
          "name": "tokenId",
          "type": "uint256"
        }
      ],
      "name": "safeTransferFrom",
      "outputs": [],
      "stateMutability": "nonpayable",
      "type": "function"
    },
    {
      "inputs": [
        {
          "internalType": "address",
          "name": "from",
          "type": "address"
        },
        {
          "internalType": "address",
          "name": "to",
          "type": "address"
        },
        {
          "internalType": "uint256",
          "name": "tokenId",
          "type": "uint256"
        },
        {
          "internalType": "bytes",
          "name": "_data",
          "type": "bytes"
        }
      ],
      "name": "safeTransferFrom",
      "outputs": [],
      "stateMutability": "nonpayable",
      "type": "function"
    },
    {
      "inputs": [
        {
          "internalType": "address",
          "name": "operator",
          "type": "address"
        },
        {
          "internalType": "bool",
          "name": "approved",
          "type": "bool"
        }
      ],
      "name": "setApprovalForAll",
      "outputs": [],
      "stateMutability": "nonpayable",
      "type": "function"
    },
    {
      "inputs": [
        {
          "internalType": "bytes4",
          "name": "interfaceId",
          "type": "bytes4"
        }
      ],
      "name": "supportsInterface",
      "outputs": [
        {
          "internalType": "bool",
          "name": "",
          "type": "bool"
        }
      ],
      "stateMutability": "view",
      "type": "function",
      "constant": true
    },
    {
      "inputs": [],
      "name": "symbol",
      "outputs": [
        {
          "internalType": "string",
          "name": "",
          "type": "string"
        }
      ],
      "stateMutability": "view",
      "type": "function",
      "constant": true
    },
    {
      "inputs": [
        {
          "internalType": "uint256",
          "name": "tokenId",
          "type": "uint256"
        }
      ],
      "name": "tokenURI",
      "outputs": [
        {
          "internalType": "string",
          "name": "",
          "type": "string"
        }
      ],
      "stateMutability": "view",
      "type": "function",
      "constant": true
    },
    {
      "inputs": [
        {
          "internalType": "address",
          "name": "from",
          "type": "address"
        },
        {
          "internalType": "address",
          "name": "to",
          "type": "address"
        },
        {
          "internalType": "uint256",
          "name": "tokenId",
          "type": "uint256"
        }
      ],
      "name": "transferFrom",
      "outputs": [],
      "stateMutability": "nonpayable",
      "type": "function"
    },
    {
      "inputs": [],
      "name": "getListingPrice",
      "outputs": [
        {
          "internalType": "uint256",
          "name": "",
          "type": "uint256"
        }
      ],
      "stateMutability": "view",
      "type": "function",
      "constant": true
    },
    {
      "inputs": [
        {
          "internalType": "string",
          "name": "tokenURI",
          "type": "string"
        },
        {
          "internalType": "uint256",
          "name": "price",
          "type": "uint256"
        }
      ],
      "name": "createToken",
      "outputs": [
        {
          "internalType": "uint256",
          "name": "",
          "type": "uint256"
        }
      ],
      "stateMutability": "payable",
      "type": "function",
      "payable": true
    },
    {
      "inputs": [
        {
          "internalType": "uint256",
          "name": "tokenId",
          "type": "uint256"
        }
      ],
      "name": "createMarketSale",
      "outputs": [],
      "stateMutability": "payable",
      "type": "function",
      "payable": true
    },
    {
      "inputs": [],
      "name": "fetchMarketItems",
      "outputs": [
        {
          "components": [
            {
              "internalType": "uint256",
              "name": "tokenId",
              "type": "uint256"
            },
            {
              "internalType": "address payable",
              "name": "seller",
              "type": "address"
            },
            {
              "internalType": "address payable",
              "name": "owner",
              "type": "address"
            },
            {
              "internalType": "uint256",
              "name": "price",
              "type": "uint256"
            },
            {
              "internalType": "bool",
              "name": "sold",
              "type": "bool"
            }
          ],
          "internalType": "struct Marketplace.MarketItem[]",
          "name": "",
          "type": "tuple[]"
        }
      ],
      "stateMutability": "view",
      "type": "function",
      "constant": true
    },
    {
      "inputs": [],
      "name": "fetchMyNFTs",
      "outputs": [
        {
          "components": [
            {
              "internalType": "uint256",
              "name": "tokenId",
              "type": "uint256"
            },
            {
              "internalType": "address payable",
              "name": "seller",
              "type": "address"
            },
            {
              "internalType": "address payable",
              "name": "owner",
              "type": "address"
            },
            {
              "internalType": "uint256",
              "name": "price",
              "type": "uint256"
            },
            {
              "internalType": "bool",
              "name": "sold",
              "type": "bool"
            }
          ],
          "internalType": "struct Marketplace.MarketItem[]",
          "name": "",
          "type": "tuple[]"
        }
      ],
      "stateMutability": "view",
      "type": "function",
      "constant": true
    }
  ],
  "bytecode": "0x608060405266038d7ea4c680006009553480156200001c57600080fd5b506040518060400160405280600c81526020017f576869746557616c6b65727300000000000000000000000000000000000000008152506040518060400160405280600381526020017f50534c00000000000000000000000000000000000000000000000000000000008152508160009080519060200190620000a192919062000104565b508060019080519060200190620000ba92919062000104565b50505033600a60006101000a81548173ffffffffffffffffffffffffffffffffffffffff021916908373ffffffffffffffffffffffffffffffffffffffff16021790555062000219565b8280546200011290620001b4565b90600052602060002090601f01602090048101928262000136576000855562000182565b82601f106200015157805160ff191683800117855562000182565b8280016001018555821562000182579182015b828111156200018157825182559160200191906001019062000164565b5b50905062000191919062000195565b5090565b5b80821115620001b057600081600090555060010162000196565b5090565b60006002820490506001821680620001cd57607f821691505b60208210811415620001e457620001e3620001ea565b5b50919050565b7f4e487b7100000000000000000000000000000000000000000000000000000000600052602260045260246000fd5b613ae780620002296000396000f3fe6080604052600436106101095760003560e01c80636352211e11610095578063a22cb46511610064578063a22cb46514610384578063b88d4fde146103ad578063be9af536146103d6578063c87b56dd146103f2578063e985e9c51461042f57610109565b80636352211e146102af57806370a08231146102ec57806372b3b6201461032957806395d89b411461035957610109565b80630f08efe0116100dc5780630f08efe0146101dc57806312e8558514610207578063202e37401461023257806323b872dd1461025d57806342842e0e1461028657610109565b806301ffc9a71461010e57806306fdde031461014b578063081812fc14610176578063095ea7b3146101b3575b600080fd5b34801561011a57600080fd5b50610135600480360381019061013091906127f3565b61046c565b6040516101429190612e28565b60405180910390f35b34801561015757600080fd5b5061016061054e565b60405161016d9190612e43565b60405180910390f35b34801561018257600080fd5b5061019d60048036038101906101989190612899565b6105e0565b6040516101aa9190612d5a565b60405180910390f35b3480156101bf57600080fd5b506101da60048036038101906101d591906127b7565b610665565b005b3480156101e857600080fd5b506101f161077d565b6040516101fe9190612e06565b60405180910390f35b34801561021357600080fd5b5061021c610a32565b60405161022991906130c5565b60405180910390f35b34801561023e57600080fd5b50610247610a3c565b6040516102549190612e06565b60405180910390f35b34801561026957600080fd5b50610284600480360381019061027f91906126b1565b610d76565b005b34801561029257600080fd5b506102ad60048036038101906102a891906126b1565b610dd6565b005b3480156102bb57600080fd5b506102d660048036038101906102d19190612899565b610df6565b6040516102e39190612d5a565b60405180910390f35b3480156102f857600080fd5b50610313600480360381019061030e919061264c565b610ea8565b60405161032091906130c5565b60405180910390f35b610343600480360381019061033e9190612845565b610f60565b60405161035091906130c5565b60405180910390f35b34801561036557600080fd5b5061036e610fa2565b60405161037b9190612e43565b60405180910390f35b34801561039057600080fd5b506103ab60048036038101906103a6919061277b565b611034565b005b3480156103b957600080fd5b506103d460048036038101906103cf9190612700565b61104a565b005b6103f060048036038101906103eb9190612899565b6110ac565b005b3480156103fe57600080fd5b5061041960048036038101906104149190612899565b6112e4565b6040516104269190612e43565b60405180910390f35b34801561043b57600080fd5b5061045660048036038101906104519190612675565b611436565b6040516104639190612e28565b60405180910390f35b60007f80ac58cd000000000000000000000000000000000000000000000000000000007bffffffffffffffffffffffffffffffffffffffffffffffffffffffff1916827bffffffffffffffffffffffffffffffffffffffffffffffffffffffff1916148061053757507f5b5e139f000000000000000000000000000000000000000000000000000000007bffffffffffffffffffffffffffffffffffffffffffffffffffffffff1916827bffffffffffffffffffffffffffffffffffffffffffffffffffffffff1916145b806105475750610546826114ca565b5b9050919050565b60606000805461055d90613366565b80601f016020809104026020016040519081016040528092919081815260200182805461058990613366565b80156105d65780601f106105ab576101008083540402835291602001916105d6565b820191906000526020600020905b8154815290600101906020018083116105b957829003601f168201915b5050505050905090565b60006105eb82611534565b61062a576040517f08c379a000000000000000000000000000000000000000000000000000000000815260040161062190613005565b60405180910390fd5b6004600083815260200190815260200160002060009054906101000a900473ffffffffffffffffffffffffffffffffffffffff169050919050565b600061067082610df6565b90508073ffffffffffffffffffffffffffffffffffffffff168373ffffffffffffffffffffffffffffffffffffffff1614156106e1576040517f08c379a00000000000000000000000000000000000000000000000000000000081526004016106d890613045565b60405180910390fd5b8073ffffffffffffffffffffffffffffffffffffffff166107006115a0565b73ffffffffffffffffffffffffffffffffffffffff16148061072f575061072e816107296115a0565b611436565b5b61076e576040517f08c379a000000000000000000000000000000000000000000000000000000000815260040161076590612f25565b60405180910390fd5b61077883836115a8565b505050565b6060600061078b6007611661565b905060006107996008611661565b6107a36007611661565b6107ad919061326a565b90506000808267ffffffffffffffff8111156107f2577f4e487b7100000000000000000000000000000000000000000000000000000000600052604160045260246000fd5b60405190808252806020026020018201604052801561082b57816020015b610818612413565b8152602001906001900390816108105790505b50905060005b84811015610a27573073ffffffffffffffffffffffffffffffffffffffff16600b600060018461086191906131e3565b815260200190815260200160002060020160009054906101000a900473ffffffffffffffffffffffffffffffffffffffff1673ffffffffffffffffffffffffffffffffffffffff161415610a145760006001826108be91906131e3565b90506000600b60008381526020019081526020016000209050806040518060a0016040529081600082015481526020016001820160009054906101000a900473ffffffffffffffffffffffffffffffffffffffff1673ffffffffffffffffffffffffffffffffffffffff1673ffffffffffffffffffffffffffffffffffffffff1681526020016002820160009054906101000a900473ffffffffffffffffffffffffffffffffffffffff1673ffffffffffffffffffffffffffffffffffffffff1673ffffffffffffffffffffffffffffffffffffffff168152602001600382015481526020016004820160009054906101000a900460ff1615151515815250508486815181106109f7577f4e487b7100000000000000000000000000000000000000000000000000000000600052603260045260246000fd5b6020026020010181905250600185610a0f91906131e3565b945050505b8080610a1f906133c9565b915050610831565b508094505050505090565b6000600954905090565b60606000610a4a6007611661565b905060008060005b83811015610af3573373ffffffffffffffffffffffffffffffffffffffff16600b6000600184610a8291906131e3565b815260200190815260200160002060020160009054906101000a900473ffffffffffffffffffffffffffffffffffffffff1673ffffffffffffffffffffffffffffffffffffffff161415610ae057600183610add91906131e3565b92505b8080610aeb906133c9565b915050610a52565b5060008267ffffffffffffffff811115610b36577f4e487b7100000000000000000000000000000000000000000000000000000000600052604160045260246000fd5b604051908082528060200260200182016040528015610b6f57816020015b610b5c612413565b815260200190600190039081610b545790505b50905060005b84811015610d6b573373ffffffffffffffffffffffffffffffffffffffff16600b6000600184610ba591906131e3565b815260200190815260200160002060020160009054906101000a900473ffffffffffffffffffffffffffffffffffffffff1673ffffffffffffffffffffffffffffffffffffffff161415610d58576000600182610c0291906131e3565b90506000600b60008381526020019081526020016000209050806040518060a0016040529081600082015481526020016001820160009054906101000a900473ffffffffffffffffffffffffffffffffffffffff1673ffffffffffffffffffffffffffffffffffffffff1673ffffffffffffffffffffffffffffffffffffffff1681526020016002820160009054906101000a900473ffffffffffffffffffffffffffffffffffffffff1673ffffffffffffffffffffffffffffffffffffffff1673ffffffffffffffffffffffffffffffffffffffff168152602001600382015481526020016004820160009054906101000a900460ff161515151581525050848681518110610d3b577f4e487b7100000000000000000000000000000000000000000000000000000000600052603260045260246000fd5b6020026020010181905250600185610d5391906131e3565b945050505b8080610d63906133c9565b915050610b75565b508094505050505090565b610d87610d816115a0565b8261166f565b610dc6576040517f08c379a0000000000000000000000000000000000000000000000000000000008152600401610dbd90613085565b60405180910390fd5b610dd183838361174d565b505050565b610df18383836040518060200160405280600081525061104a565b505050565b6000806002600084815260200190815260200160002060009054906101000a900473ffffffffffffffffffffffffffffffffffffffff169050600073ffffffffffffffffffffffffffffffffffffffff168173ffffffffffffffffffffffffffffffffffffffff161415610e9f576040517f08c379a0000000000000000000000000000000000000000000000000000000008152600401610e9690612f65565b60405180910390fd5b80915050919050565b60008073ffffffffffffffffffffffffffffffffffffffff168273ffffffffffffffffffffffffffffffffffffffff161415610f19576040517f08c379a0000000000000000000000000000000000000000000000000000000008152600401610f1090612f45565b60405180910390fd5b600360008373ffffffffffffffffffffffffffffffffffffffff1673ffffffffffffffffffffffffffffffffffffffff168152602001908152602001600020549050919050565b6000610f6c60076119b4565b6000610f786007611661565b9050610f8433826119ca565b610f8e8185611ba4565b610f988184611c18565b8091505092915050565b606060018054610fb190613366565b80601f0160208091040260200160405190810160405280929190818152602001828054610fdd90613366565b801561102a5780601f10610fff5761010080835404028352916020019161102a565b820191906000526020600020905b81548152906001019060200180831161100d57829003601f168201915b5050505050905090565b61104661103f6115a0565b8383611e1b565b5050565b61105b6110556115a0565b8361166f565b61109a576040517f08c379a000000000000000000000000000000000000000000000000000000000815260040161109190613085565b60405180910390fd5b6110a684848484611f88565b50505050565b6000600b6000838152602001908152602001600020600301549050803414611109576040517f08c379a000000000000000000000000000000000000000000000000000000000815260040161110090612fa5565b60405180910390fd5b33600b600084815260200190815260200160002060020160006101000a81548173ffffffffffffffffffffffffffffffffffffffff021916908373ffffffffffffffffffffffffffffffffffffffff1602179055506001600b600084815260200190815260200160002060040160006101000a81548160ff0219169083151502179055506000600b600084815260200190815260200160002060010160006101000a81548173ffffffffffffffffffffffffffffffffffffffff021916908373ffffffffffffffffffffffffffffffffffffffff1602179055506111ed60086119b4565b6111f830338461174d565b600a60009054906101000a900473ffffffffffffffffffffffffffffffffffffffff1673ffffffffffffffffffffffffffffffffffffffff166108fc6009549081150290604051600060405180830381858888f19350505050158015611262573d6000803e3d6000fd5b50600b600083815260200190815260200160002060010160009054906101000a900473ffffffffffffffffffffffffffffffffffffffff1673ffffffffffffffffffffffffffffffffffffffff166108fc349081150290604051600060405180830381858888f193505050501580156112df573d6000803e3d6000fd5b505050565b60606112ef82611534565b61132e576040517f08c379a000000000000000000000000000000000000000000000000000000000815260040161132590612fe5565b60405180910390fd5b600060066000848152602001908152602001600020805461134e90613366565b80601f016020809104026020016040519081016040528092919081815260200182805461137a90613366565b80156113c75780601f1061139c576101008083540402835291602001916113c7565b820191906000526020600020905b8154815290600101906020018083116113aa57829003601f168201915b5050505050905060006113d8611fe4565b90506000815114156113ee578192505050611431565b60008251111561142357808260405160200161140b929190612d36565b60405160208183030381529060405292505050611431565b61142c84611ffb565b925050505b919050565b6000600560008473ffffffffffffffffffffffffffffffffffffffff1673ffffffffffffffffffffffffffffffffffffffff16815260200190815260200160002060008373ffffffffffffffffffffffffffffffffffffffff1673ffffffffffffffffffffffffffffffffffffffff16815260200190815260200160002060009054906101000a900460ff16905092915050565b60007f01ffc9a7000000000000000000000000000000000000000000000000000000007bffffffffffffffffffffffffffffffffffffffffffffffffffffffff1916827bffffffffffffffffffffffffffffffffffffffffffffffffffffffff1916149050919050565b60008073ffffffffffffffffffffffffffffffffffffffff166002600084815260200190815260200160002060009054906101000a900473ffffffffffffffffffffffffffffffffffffffff1673ffffffffffffffffffffffffffffffffffffffff1614159050919050565b600033905090565b816004600083815260200190815260200160002060006101000a81548173ffffffffffffffffffffffffffffffffffffffff021916908373ffffffffffffffffffffffffffffffffffffffff160217905550808273ffffffffffffffffffffffffffffffffffffffff1661161b83610df6565b73ffffffffffffffffffffffffffffffffffffffff167f8c5be1e5ebec7d5bd14f71427d1e84f3dd0314c0f7b2291e5b200ac8c7c3b92560405160405180910390a45050565b600081600001549050919050565b600061167a82611534565b6116b9576040517f08c379a00000000000000000000000000000000000000000000000000000000081526004016116b090612f05565b60405180910390fd5b60006116c483610df6565b90508073ffffffffffffffffffffffffffffffffffffffff168473ffffffffffffffffffffffffffffffffffffffff16148061173357508373ffffffffffffffffffffffffffffffffffffffff1661171b846105e0565b73ffffffffffffffffffffffffffffffffffffffff16145b8061174457506117438185611436565b5b91505092915050565b8273ffffffffffffffffffffffffffffffffffffffff1661176d82610df6565b73ffffffffffffffffffffffffffffffffffffffff16146117c3576040517f08c379a00000000000000000000000000000000000000000000000000000000081526004016117ba90612e85565b60405180910390fd5b600073ffffffffffffffffffffffffffffffffffffffff168273ffffffffffffffffffffffffffffffffffffffff161415611833576040517f08c379a000000000000000000000000000000000000000000000000000000000815260040161182a90612ec5565b60405180910390fd5b61183e8383836120a2565b6118496000826115a8565b6001600360008573ffffffffffffffffffffffffffffffffffffffff1673ffffffffffffffffffffffffffffffffffffffff1681526020019081526020016000206000828254611899919061326a565b925050819055506001600360008473ffffffffffffffffffffffffffffffffffffffff1673ffffffffffffffffffffffffffffffffffffffff16815260200190815260200160002060008282546118f091906131e3565b92505081905550816002600083815260200190815260200160002060006101000a81548173ffffffffffffffffffffffffffffffffffffffff021916908373ffffffffffffffffffffffffffffffffffffffff160217905550808273ffffffffffffffffffffffffffffffffffffffff168473ffffffffffffffffffffffffffffffffffffffff167fddf252ad1be2c89b69c2b068fc378daa952ba7f163c4a11628f55a4df523b3ef60405160405180910390a46119af8383836120a7565b505050565b6001816000016000828254019250508190555050565b600073ffffffffffffffffffffffffffffffffffffffff168273ffffffffffffffffffffffffffffffffffffffff161415611a3a576040517f08c379a0000000000000000000000000000000000000000000000000000000008152600401611a3190612fc5565b60405180910390fd5b611a4381611534565b15611a83576040517f08c379a0000000000000000000000000000000000000000000000000000000008152600401611a7a90612ea5565b60405180910390fd5b611a8f600083836120a2565b6001600360008473ffffffffffffffffffffffffffffffffffffffff1673ffffffffffffffffffffffffffffffffffffffff1681526020019081526020016000206000828254611adf91906131e3565b92505081905550816002600083815260200190815260200160002060006101000a81548173ffffffffffffffffffffffffffffffffffffffff021916908373ffffffffffffffffffffffffffffffffffffffff160217905550808273ffffffffffffffffffffffffffffffffffffffff16600073ffffffffffffffffffffffffffffffffffffffff167fddf252ad1be2c89b69c2b068fc378daa952ba7f163c4a11628f55a4df523b3ef60405160405180910390a4611ba0600083836120a7565b5050565b611bad82611534565b611bec576040517f08c379a0000000000000000000000000000000000000000000000000000000008152600401611be390612f85565b60405180910390fd5b80600660008481526020019081526020016000209080519060200190611c13929190612470565b505050565b60008111611c5b576040517f08c379a0000000000000000000000000000000000000000000000000000000008152600401611c52906130a5565b60405180910390fd5b6009543414611c9f576040517f08c379a0000000000000000000000000000000000000000000000000000000008152600401611c9690613065565b60405180910390fd5b6040518060a001604052808381526020013373ffffffffffffffffffffffffffffffffffffffff1681526020013073ffffffffffffffffffffffffffffffffffffffff16815260200182815260200160001515815250600b60008481526020019081526020016000206000820151816000015560208201518160010160006101000a81548173ffffffffffffffffffffffffffffffffffffffff021916908373ffffffffffffffffffffffffffffffffffffffff16021790555060408201518160020160006101000a81548173ffffffffffffffffffffffffffffffffffffffff021916908373ffffffffffffffffffffffffffffffffffffffff1602179055506060820151816003015560808201518160040160006101000a81548160ff021916908315150217905550905050611dd833308461174d565b817fb640004f1d14576d0c209e240cad0410e0d8c0c33a09375861fbadae2588a98d3330846000604051611e0f9493929190612d75565b60405180910390a25050565b8173ffffffffffffffffffffffffffffffffffffffff168373ffffffffffffffffffffffffffffffffffffffff161415611e8a576040517f08c379a0000000000000000000000000000000000000000000000000000000008152600401611e8190612ee5565b60405180910390fd5b80600560008573ffffffffffffffffffffffffffffffffffffffff1673ffffffffffffffffffffffffffffffffffffffff16815260200190815260200160002060008473ffffffffffffffffffffffffffffffffffffffff1673ffffffffffffffffffffffffffffffffffffffff16815260200190815260200160002060006101000a81548160ff0219169083151502179055508173ffffffffffffffffffffffffffffffffffffffff168373ffffffffffffffffffffffffffffffffffffffff167f17307eab39ab6107e8899845ad3d59bd9653f200f220920489ca2b5937696c3183604051611f7b9190612e28565b60405180910390a3505050565b611f9384848461174d565b611f9f848484846120ac565b611fde576040517f08c379a0000000000000000000000000000000000000000000000000000000008152600401611fd590612e65565b60405180910390fd5b50505050565b606060405180602001604052806000815250905090565b606061200682611534565b612045576040517f08c379a000000000000000000000000000000000000000000000000000000000815260040161203c90613025565b60405180910390fd5b600061204f611fe4565b9050600081511161206f576040518060200160405280600081525061209a565b8061207984612243565b60405160200161208a929190612d36565b6040516020818303038152906040525b915050919050565b505050565b505050565b60006120cd8473ffffffffffffffffffffffffffffffffffffffff166123f0565b15612236578373ffffffffffffffffffffffffffffffffffffffff1663150b7a026120f66115a0565b8786866040518563ffffffff1660e01b81526004016121189493929190612dba565b602060405180830381600087803b15801561213257600080fd5b505af192505050801561216357506040513d601f19601f82011682018060405250810190612160919061281c565b60015b6121e6573d8060008114612193576040519150601f19603f3d011682016040523d82523d6000602084013e612198565b606091505b506000815114156121de576040517f08c379a00000000000000000000000000000000000000000000000000000000081526004016121d590612e65565b60405180910390fd5b805181602001fd5b63150b7a0260e01b7bffffffffffffffffffffffffffffffffffffffffffffffffffffffff1916817bffffffffffffffffffffffffffffffffffffffffffffffffffffffff19161491505061223b565b600190505b949350505050565b6060600082141561228b576040518060400160405280600181526020017f300000000000000000000000000000000000000000000000000000000000000081525090506123eb565b600082905060005b600082146122bd5780806122a6906133c9565b915050600a826122b69190613239565b9150612293565b60008167ffffffffffffffff8111156122ff577f4e487b7100000000000000000000000000000000000000000000000000000000600052604160045260246000fd5b6040519080825280601f01601f1916602001820160405280156123315781602001600182028036833780820191505090505b5090505b600085146123e45760018261234a919061326a565b9150600a856123599190613412565b603061236591906131e3565b60f81b8183815181106123a1577f4e487b7100000000000000000000000000000000000000000000000000000000600052603260045260246000fd5b60200101907effffffffffffffffffffffffffffffffffffffffffffffffffffffffffffff1916908160001a905350600a856123dd9190613239565b9450612335565b8093505050505b919050565b6000808273ffffffffffffffffffffffffffffffffffffffff163b119050919050565b6040518060a0016040528060008152602001600073ffffffffffffffffffffffffffffffffffffffff168152602001600073ffffffffffffffffffffffffffffffffffffffff168152602001600081526020016000151581525090565b82805461247c90613366565b90600052602060002090601f01602090048101928261249e57600085556124e5565b82601f106124b757805160ff19168380011785556124e5565b828001600101855582156124e5579182015b828111156124e45782518255916020019190600101906124c9565b5b5090506124f291906124f6565b5090565b5b8082111561250f5760008160009055506001016124f7565b5090565b600061252661252184613105565b6130e0565b90508281526020810184848401111561253e57600080fd5b612549848285613324565b509392505050565b600061256461255f84613136565b6130e0565b90508281526020810184848401111561257c57600080fd5b612587848285613324565b509392505050565b60008135905061259e81613a55565b92915050565b6000813590506125b381613a6c565b92915050565b6000813590506125c881613a83565b92915050565b6000815190506125dd81613a83565b92915050565b600082601f8301126125f457600080fd5b8135612604848260208601612513565b91505092915050565b600082601f83011261261e57600080fd5b813561262e848260208601612551565b91505092915050565b60008135905061264681613a9a565b92915050565b60006020828403121561265e57600080fd5b600061266c8482850161258f565b91505092915050565b6000806040838503121561268857600080fd5b60006126968582860161258f565b92505060206126a78582860161258f565b9150509250929050565b6000806000606084860312156126c657600080fd5b60006126d48682870161258f565b93505060206126e58682870161258f565b92505060406126f686828701612637565b9150509250925092565b6000806000806080858703121561271657600080fd5b60006127248782880161258f565b94505060206127358782880161258f565b935050604061274687828801612637565b925050606085013567ffffffffffffffff81111561276357600080fd5b61276f878288016125e3565b91505092959194509250565b6000806040838503121561278e57600080fd5b600061279c8582860161258f565b92505060206127ad858286016125a4565b9150509250929050565b600080604083850312156127ca57600080fd5b60006127d88582860161258f565b92505060206127e985828601612637565b9150509250929050565b60006020828403121561280557600080fd5b6000612813848285016125b9565b91505092915050565b60006020828403121561282e57600080fd5b600061283c848285016125ce565b91505092915050565b6000806040838503121561285857600080fd5b600083013567ffffffffffffffff81111561287257600080fd5b61287e8582860161260d565b925050602061288f85828601612637565b9150509250929050565b6000602082840312156128ab57600080fd5b60006128b984828501612637565b91505092915050565b60006128ce8383612cb0565b60a08301905092915050565b6128e3816132b0565b82525050565b6128f28161329e565b82525050565b600061290382613177565b61290d81856131a5565b935061291883613167565b8060005b8381101561294957815161293088826128c2565b975061293b83613198565b92505060018101905061291c565b5085935050505092915050565b61295f816132c2565b82525050565b61296e816132c2565b82525050565b600061297f82613182565b61298981856131b6565b9350612999818560208601613333565b6129a2816134ff565b840191505092915050565b60006129b88261318d565b6129c281856131c7565b93506129d2818560208601613333565b6129db816134ff565b840191505092915050565b60006129f18261318d565b6129fb81856131d8565b9350612a0b818560208601613333565b80840191505092915050565b6000612a246032836131c7565b9150612a2f82613510565b604082019050919050565b6000612a476025836131c7565b9150612a528261355f565b604082019050919050565b6000612a6a601c836131c7565b9150612a75826135ae565b602082019050919050565b6000612a8d6024836131c7565b9150612a98826135d7565b604082019050919050565b6000612ab06019836131c7565b9150612abb82613626565b602082019050919050565b6000612ad3602c836131c7565b9150612ade8261364f565b604082019050919050565b6000612af66038836131c7565b9150612b018261369e565b604082019050919050565b6000612b19602a836131c7565b9150612b24826136ed565b604082019050919050565b6000612b3c6029836131c7565b9150612b478261373c565b604082019050919050565b6000612b5f602e836131c7565b9150612b6a8261378b565b604082019050919050565b6000612b826040836131c7565b9150612b8d826137da565b604082019050919050565b6000612ba56020836131c7565b9150612bb082613829565b602082019050919050565b6000612bc86031836131c7565b9150612bd382613852565b604082019050919050565b6000612beb602c836131c7565b9150612bf6826138a1565b604082019050919050565b6000612c0e602f836131c7565b9150612c19826138f0565b604082019050919050565b6000612c316021836131c7565b9150612c3c8261393f565b604082019050919050565b6000612c546024836131c7565b9150612c5f8261398e565b604082019050919050565b6000612c776031836131c7565b9150612c82826139dd565b604082019050919050565b6000612c9a601c836131c7565b9150612ca582613a2c565b602082019050919050565b60a082016000820151612cc66000850182612d18565b506020820151612cd960208501826128da565b506040820151612cec60408501826128da565b506060820151612cff6060850182612d18565b506080820151612d126080850182612956565b50505050565b612d218161331a565b82525050565b612d308161331a565b82525050565b6000612d4282856129e6565b9150612d4e82846129e6565b91508190509392505050565b6000602082019050612d6f60008301846128e9565b92915050565b6000608082019050612d8a60008301876128e9565b612d9760208301866128e9565b612da46040830185612d27565b612db16060830184612965565b95945050505050565b6000608082019050612dcf60008301876128e9565b612ddc60208301866128e9565b612de96040830185612d27565b8181036060830152612dfb8184612974565b905095945050505050565b60006020820190508181036000830152612e2081846128f8565b905092915050565b6000602082019050612e3d6000830184612965565b92915050565b60006020820190508181036000830152612e5d81846129ad565b905092915050565b60006020820190508181036000830152612e7e81612a17565b9050919050565b60006020820190508181036000830152612e9e81612a3a565b9050919050565b60006020820190508181036000830152612ebe81612a5d565b9050919050565b60006020820190508181036000830152612ede81612a80565b9050919050565b60006020820190508181036000830152612efe81612aa3565b9050919050565b60006020820190508181036000830152612f1e81612ac6565b9050919050565b60006020820190508181036000830152612f3e81612ae9565b9050919050565b60006020820190508181036000830152612f5e81612b0c565b9050919050565b60006020820190508181036000830152612f7e81612b2f565b9050919050565b60006020820190508181036000830152612f9e81612b52565b9050919050565b60006020820190508181036000830152612fbe81612b75565b9050919050565b60006020820190508181036000830152612fde81612b98565b9050919050565b60006020820190508181036000830152612ffe81612bbb565b9050919050565b6000602082019050818103600083015261301e81612bde565b9050919050565b6000602082019050818103600083015261303e81612c01565b9050919050565b6000602082019050818103600083015261305e81612c24565b9050919050565b6000602082019050818103600083015261307e81612c47565b9050919050565b6000602082019050818103600083015261309e81612c6a565b9050919050565b600060208201905081810360008301526130be81612c8d565b9050919050565b60006020820190506130da6000830184612d27565b92915050565b60006130ea6130fb565b90506130f68282613398565b919050565b6000604051905090565b600067ffffffffffffffff8211156131205761311f6134d0565b5b613129826134ff565b9050602081019050919050565b600067ffffffffffffffff821115613151576131506134d0565b5b61315a826134ff565b9050602081019050919050565b6000819050602082019050919050565b600081519050919050565b600081519050919050565b600081519050919050565b6000602082019050919050565b600082825260208201905092915050565b600082825260208201905092915050565b600082825260208201905092915050565b600081905092915050565b60006131ee8261331a565b91506131f98361331a565b9250827fffffffffffffffffffffffffffffffffffffffffffffffffffffffffffffffff0382111561322e5761322d613443565b5b828201905092915050565b60006132448261331a565b915061324f8361331a565b92508261325f5761325e613472565b5b828204905092915050565b60006132758261331a565b91506132808361331a565b92508282101561329357613292613443565b5b828203905092915050565b60006132a9826132fa565b9050919050565b60006132bb826132fa565b9050919050565b60008115159050919050565b60007fffffffff0000000000000000000000000000000000000000000000000000000082169050919050565b600073ffffffffffffffffffffffffffffffffffffffff82169050919050565b6000819050919050565b82818337600083830152505050565b60005b83811015613351578082015181840152602081019050613336565b83811115613360576000848401525b50505050565b6000600282049050600182168061337e57607f821691505b60208210811415613392576133916134a1565b5b50919050565b6133a1826134ff565b810181811067ffffffffffffffff821117156133c0576133bf6134d0565b5b80604052505050565b60006133d48261331a565b91507fffffffffffffffffffffffffffffffffffffffffffffffffffffffffffffffff82141561340757613406613443565b5b600182019050919050565b600061341d8261331a565b91506134288361331a565b92508261343857613437613472565b5b828206905092915050565b7f4e487b7100000000000000000000000000000000000000000000000000000000600052601160045260246000fd5b7f4e487b7100000000000000000000000000000000000000000000000000000000600052601260045260246000fd5b7f4e487b7100000000000000000000000000000000000000000000000000000000600052602260045260246000fd5b7f4e487b7100000000000000000000000000000000000000000000000000000000600052604160045260246000fd5b6000601f19601f8301169050919050565b7f4552433732313a207472616e7366657220746f206e6f6e20455243373231526560008201527f63656976657220696d706c656d656e7465720000000000000000000000000000602082015250565b7f4552433732313a207472616e736665722066726f6d20696e636f72726563742060008201527f6f776e6572000000000000000000000000000000000000000000000000000000602082015250565b7f4552433732313a20746f6b656e20616c7265616479206d696e74656400000000600082015250565b7f4552433732313a207472616e7366657220746f20746865207a65726f2061646460008201527f7265737300000000000000000000000000000000000000000000000000000000602082015250565b7f4552433732313a20617070726f766520746f2063616c6c657200000000000000600082015250565b7f4552433732313a206f70657261746f7220717565727920666f72206e6f6e657860008201527f697374656e7420746f6b656e0000000000000000000000000000000000000000602082015250565b7f4552433732313a20617070726f76652063616c6c6572206973206e6f74206f7760008201527f6e6572206e6f7220617070726f76656420666f7220616c6c0000000000000000602082015250565b7f4552433732313a2062616c616e636520717565727920666f7220746865207a6560008201527f726f206164647265737300000000000000000000000000000000000000000000602082015250565b7f4552433732313a206f776e657220717565727920666f72206e6f6e657869737460008201527f656e7420746f6b656e0000000000000000000000000000000000000000000000602082015250565b7f45524337323155524953746f726167653a2055524920736574206f66206e6f6e60008201527f6578697374656e7420746f6b656e000000000000000000000000000000000000602082015250565b7f506c65617365207375626d6974207468652061736b696e67207072696365206960008201527f6e206f7264657220746f20636f6d706c65746520746865207075726368617365602082015250565b7f4552433732313a206d696e7420746f20746865207a65726f2061646472657373600082015250565b7f45524337323155524953746f726167653a2055524920717565727920666f722060008201527f6e6f6e6578697374656e7420746f6b656e000000000000000000000000000000602082015250565b7f4552433732313a20617070726f76656420717565727920666f72206e6f6e657860008201527f697374656e7420746f6b656e0000000000000000000000000000000000000000602082015250565b7f4552433732314d657461646174613a2055524920717565727920666f72206e6f60008201527f6e6578697374656e7420746f6b656e0000000000000000000000000000000000602082015250565b7f4552433732313a20617070726f76616c20746f2063757272656e74206f776e6560008201527f7200000000000000000000000000000000000000000000000000000000000000602082015250565b7f5072696365206d75737420626520657175616c20746f206c697374696e67207060008201527f7269636500000000000000000000000000000000000000000000000000000000602082015250565b7f4552433732313a207472616e736665722063616c6c6572206973206e6f74206f60008201527f776e6572206e6f7220617070726f766564000000000000000000000000000000602082015250565b7f5072696365206d757374206265206174206c6561737420312077656900000000600082015250565b613a5e8161329e565b8114613a6957600080fd5b50565b613a75816132c2565b8114613a8057600080fd5b50565b613a8c816132ce565b8114613a9757600080fd5b50565b613aa38161331a565b8114613aae57600080fd5b5056fea2646970667358221220f8af397a2d738660462feab5d30457c20eee9d9e99f5a7b6f028d0c6c899bfea64736f6c63430008040033",
  "immutableReferences": {},
  "source": "// SPDX-License-Identifier: MIT\r\npragma solidity ^0.8.4;\r\n\r\nimport \"@openzeppelin/contracts/utils/Counters.sol\";\r\nimport \"@openzeppelin/contracts/token/ERC721/extensions/ERC721URIStorage.sol\";\r\nimport \"@openzeppelin/contracts/token/ERC721/ERC721.sol\";\r\n\r\n\r\ncontract Marketplace is ERC721URIStorage {\r\n    using Counters for Counters.Counter;\r\n    Counters.Counter private _tokenIds;  \r\n    Counters.Counter private _itemsSold;\r\n\r\n    uint256 listingPrice = 0.001 ether;\r\n    address payable owner;\r\n\r\n    mapping(uint256 => MarketItem) private idToMarketItem;\r\n\r\n    struct MarketItem {\r\n      uint256 tokenId;\r\n      address payable seller;\r\n      address payable owner;\r\n      uint256 price;\r\n      bool sold;\r\n    }\r\n\r\n    event MarketItemCreated (\r\n      uint256 indexed tokenId,\r\n      address seller,\r\n      address owner,\r\n      uint256 price,\r\n      bool sold\r\n    );\r\n\r\n    constructor() ERC721(\"WhiteWalkers\", \"PSL\") {\r\n      owner = payable(msg.sender);\r\n    }\r\n\r\n    /*----------------------------------------\r\n              Price of Item \r\n    ------------------------------------------ */\r\n    function getListingPrice() public view returns (uint256) {\r\n      return listingPrice;\r\n    }\r\n\r\n\r\n    /*----------------------------------------\r\n          Minting & Adding to Marketplace\r\n    ------------------------------------------ */\r\n    function createToken(string memory tokenURI, uint256 price) public payable returns (uint) {\r\n      _tokenIds.increment();\r\n      uint256 newTokenId = _tokenIds.current();\r\n\r\n      _mint(msg.sender, newTokenId);\r\n      _setTokenURI(newTokenId, tokenURI);\r\n      createMarketItem(newTokenId, price);\r\n      return newTokenId;\r\n    }\r\n\r\n\r\n    /*----------------------------------------\r\n                New Item Creation\r\n    ------------------------------------------ */\r\n    function createMarketItem(\r\n      uint256 tokenId,\r\n      uint256 price\r\n    ) private {\r\n      require(price > 0, \"Price must be at least 1 wei\");\r\n      require(msg.value == listingPrice, \"Price must be equal to listing price\");\r\n\r\n      idToMarketItem[tokenId] =  MarketItem(\r\n        tokenId,\r\n        payable(msg.sender),\r\n        payable(address(this)),\r\n        price,\r\n        false\r\n      );\r\n\r\n      _transfer(msg.sender, address(this), tokenId);\r\n      emit MarketItemCreated(\r\n        tokenId,\r\n        msg.sender,\r\n        address(this),\r\n        price,\r\n        false\r\n      );\r\n    }\r\n\r\n\r\n    /*----------------------------------------------------------\r\n      Transfer Ownership to the Buyer & Payment to the creator\r\n    ------------------------------------------------------------ */\r\n    function createMarketSale(\r\n      uint256 tokenId\r\n      ) public payable {\r\n      uint price = idToMarketItem[tokenId].price;\r\n      require(msg.value == price, \"Please submit the asking price in order to complete the purchase\");\r\n      idToMarketItem[tokenId].owner = payable(msg.sender);\r\n      idToMarketItem[tokenId].sold = true;\r\n      idToMarketItem[tokenId].seller = payable(address(0));\r\n      _itemsSold.increment();\r\n      _transfer(address(this), msg.sender, tokenId);\r\n      payable(owner).transfer(listingPrice);\r\n      payable(idToMarketItem[tokenId].seller).transfer(msg.value);\r\n    }\r\n\r\n    /*----------------------------------------\r\n              Unsold Marketplace \r\n    ------------------------------------------ */\r\n    function fetchMarketItems() public view returns (MarketItem[] memory) {\r\n      uint itemCount = _tokenIds.current();\r\n      uint unsoldItemCount = _tokenIds.current() - _itemsSold.current();\r\n      uint currentIndex = 0;\r\n\r\n      MarketItem[] memory items = new MarketItem[](unsoldItemCount);\r\n      for (uint i = 0; i < itemCount; i++) {\r\n        if (idToMarketItem[i + 1].owner == address(this)) {\r\n          uint currentId = i + 1;\r\n          MarketItem storage currentItem = idToMarketItem[currentId];\r\n          items[currentIndex] = currentItem;\r\n          currentIndex += 1;\r\n        }\r\n      }\r\n      return items;\r\n    }\r\n\r\n    \r\n    /*----------------------------------------\r\n              User NFT Purchases\r\n    ------------------------------------------ */\r\n    function fetchMyNFTs() public view returns (MarketItem[] memory) {\r\n      uint totalItemCount = _tokenIds.current();\r\n      uint itemCount = 0;\r\n      uint currentIndex = 0;\r\n\r\n      for (uint i = 0; i < totalItemCount; i++) {\r\n        if (idToMarketItem[i + 1].owner == msg.sender) {\r\n          itemCount += 1;\r\n        }\r\n      }\r\n\r\n      MarketItem[] memory items = new MarketItem[](itemCount);\r\n      for (uint i = 0; i < totalItemCount; i++) {\r\n        if (idToMarketItem[i + 1].owner == msg.sender) {\r\n          uint currentId = i + 1;\r\n          MarketItem storage currentItem = idToMarketItem[currentId];\r\n          items[currentIndex] = currentItem;\r\n          currentIndex += 1;\r\n        }\r\n      }\r\n      return items;\r\n    }\r\n}",
  "sourcePath": "C:/Users/ACER/Desktop/Projects/Semicolons/Dapp-3/src/contracts/Marketplace.sol",
  "compiler": {
    "name": "solc",
    "version": "0.8.4+commit.c7e474f2.Emscripten.clang"
  },
  "schemaVersion": "3.4.1",
  "updatedAt": "2022-03-03T13:12:01.493Z",
  "networkType": "ethereum",
  "devdoc": {
    "kind": "dev",
    "methods": {
      "approve(address,uint256)": {
        "details": "See {IERC721-approve}."
      },
      "balanceOf(address)": {
        "details": "See {IERC721-balanceOf}."
      },
      "getApproved(uint256)": {
        "details": "See {IERC721-getApproved}."
      },
      "isApprovedForAll(address,address)": {
        "details": "See {IERC721-isApprovedForAll}."
      },
      "name()": {
        "details": "See {IERC721Metadata-name}."
      },
      "ownerOf(uint256)": {
        "details": "See {IERC721-ownerOf}."
      },
      "safeTransferFrom(address,address,uint256)": {
        "details": "See {IERC721-safeTransferFrom}."
      },
      "safeTransferFrom(address,address,uint256,bytes)": {
        "details": "See {IERC721-safeTransferFrom}."
      },
      "setApprovalForAll(address,bool)": {
        "details": "See {IERC721-setApprovalForAll}."
      },
      "supportsInterface(bytes4)": {
        "details": "See {IERC165-supportsInterface}."
      },
      "symbol()": {
        "details": "See {IERC721Metadata-symbol}."
      },
      "tokenURI(uint256)": {
        "details": "See {IERC721Metadata-tokenURI}."
      },
      "transferFrom(address,address,uint256)": {
        "details": "See {IERC721-transferFrom}."
      }
    },
    "version": 1
  },
  "userdoc": {
    "kind": "user",
    "methods": {},
    "version": 1
  }
}